{
  "_format": "hh-sol-artifact-1",
  "contractName": "Flipper",
  "sourceName": "contracts/Flipper.sol",
  "abi": [
    {
      "inputs": [],
      "name": "flip",
      "outputs": [],
      "stateMutability": "nonpayable",
      "type": "function"
    },
    {
      "inputs": [],
      "name": "getFlipperState",
      "outputs": [
        {
          "internalType": "bool",
          "name": "",
          "type": "bool"
        }
      ],
      "stateMutability": "view",
      "type": "function"
    },
    {
      "inputs": [],
      "name": "val",
      "outputs": [
        {
          "internalType": "bool",
          "name": "",
          "type": "bool"
        }
      ],
      "stateMutability": "view",
      "type": "function"
    }
  ],
  "bytecode": "0x608060405260008060006101000a81548160ff02191690831515021790555034801561002a57600080fd5b506101488061003a6000396000f3fe608060405234801561001057600080fd5b50600436106100415760003560e01c8063252b517d146100465780633c6bb43614610064578063cde4efa914610082575b600080fd5b61004e61008c565b60405161005b91906100eb565b60405180910390f35b61006c6100a2565b60405161007991906100eb565b60405180910390f35b61008a6100b3565b005b60008060009054906101000a900460ff16905090565b60008054906101000a900460ff1681565b60008054906101000a900460ff16156000806101000a81548160ff021916908315150217905550565b6100e581610106565b82525050565b600060208201905061010060008301846100dc565b92915050565b6000811515905091905056fea26469706673582212208ba9b1b0b7823b8d6546210a8b1c72948522f3b011ee97b04fe17c00ab7e81e364736f6c63430008040033",
  "linkReferences": {},
  "deployedLinkReferences": {}
}